{
  "_format": "hh-sol-artifact-1",
  "contractName": "LandRegistry",
  "sourceName": "contracts/LandRegistry.sol",
  "abi": [
    {
      "anonymous": false,
      "inputs": [
        {
          "indexed": true,
          "internalType": "uint256",
          "name": "landId",
          "type": "uint256"
        },
        {
          "indexed": false,
          "internalType": "string",
          "name": "ownerName",
          "type": "string"
        },
        {
          "indexed": false,
          "internalType": "string",
          "name": "location",
          "type": "string"
        },
        {
          "indexed": false,
          "internalType": "uint256",
          "name": "area",
          "type": "uint256"
        },
        {
          "indexed": false,
          "internalType": "string",
          "name": "nin",
          "type": "string"
        },
        {
          "indexed": true,
          "internalType": "address",
          "name": "owner",
          "type": "address"
        }
      ],
      "name": "LandRegistered",
      "type": "event"
    },
    {
      "anonymous": false,
      "inputs": [
        {
          "indexed": true,
          "internalType": "uint256",
          "name": "landId",
          "type": "uint256"
        },
        {
          "indexed": true,
          "internalType": "address",
          "name": "previousOwner",
          "type": "address"
        },
        {
          "indexed": true,
          "internalType": "address",
          "name": "newOwner",
          "type": "address"
        }
      ],
      "name": "OwnershipTransferred",
      "type": "event"
    },
    {
      "anonymous": false,
      "inputs": [
        {
          "indexed": true,
          "internalType": "address",
          "name": "userAddress",
          "type": "address"
        },
        {
          "indexed": false,
          "internalType": "string",
          "name": "username",
          "type": "string"
        }
      ],
      "name": "UserRegistered",
      "type": "event"
    },
    {
      "inputs": [],
      "name": "getAllLands",
      "outputs": [
        {
          "components": [
            {
              "internalType": "uint256",
              "name": "landId",
              "type": "uint256"
            },
            {
              "internalType": "string",
              "name": "ownerName",
              "type": "string"
            },
            {
              "internalType": "string",
              "name": "location",
              "type": "string"
            },
            {
              "internalType": "uint256",
              "name": "area",
              "type": "uint256"
            },
            {
              "internalType": "string",
              "name": "nin",
              "type": "string"
            },
            {
              "internalType": "address",
              "name": "owner",
              "type": "address"
            }
          ],
          "internalType": "struct LandRegistry.Land[]",
          "name": "",
          "type": "tuple[]"
        }
      ],
      "stateMutability": "view",
      "type": "function"
    },
    {
      "inputs": [
        {
          "internalType": "uint256",
          "name": "_landId",
          "type": "uint256"
        }
      ],
      "name": "getLand",
      "outputs": [
        {
          "internalType": "string",
          "name": "",
          "type": "string"
        },
        {
          "internalType": "string",
          "name": "",
          "type": "string"
        },
        {
          "internalType": "uint256",
          "name": "",
          "type": "uint256"
        },
        {
          "internalType": "string",
          "name": "",
          "type": "string"
        },
        {
          "internalType": "address",
          "name": "",
          "type": "address"
        }
      ],
      "stateMutability": "view",
      "type": "function"
    },
    {
      "inputs": [
        {
          "internalType": "address",
          "name": "userAddress",
          "type": "address"
        }
      ],
      "name": "getUser",
      "outputs": [
        {
          "internalType": "string",
          "name": "",
          "type": "string"
        },
        {
          "internalType": "bytes32",
          "name": "",
          "type": "bytes32"
        },
        {
          "internalType": "address",
          "name": "",
          "type": "address"
        }
      ],
      "stateMutability": "view",
      "type": "function"
    },
    {
      "inputs": [],
      "name": "landCount",
      "outputs": [
        {
          "internalType": "uint256",
          "name": "",
          "type": "uint256"
        }
      ],
      "stateMutability": "view",
      "type": "function"
    },
    {
      "inputs": [
        {
          "internalType": "uint256",
          "name": "",
          "type": "uint256"
        }
      ],
      "name": "lands",
      "outputs": [
        {
          "internalType": "uint256",
          "name": "landId",
          "type": "uint256"
        },
        {
          "internalType": "string",
          "name": "ownerName",
          "type": "string"
        },
        {
          "internalType": "string",
          "name": "location",
          "type": "string"
        },
        {
          "internalType": "uint256",
          "name": "area",
          "type": "uint256"
        },
        {
          "internalType": "string",
          "name": "nin",
          "type": "string"
        },
        {
          "internalType": "address",
          "name": "owner",
          "type": "address"
        }
      ],
      "stateMutability": "view",
      "type": "function"
    },
    {
      "inputs": [
        {
          "internalType": "string",
          "name": "_ownerName",
          "type": "string"
        },
        {
          "internalType": "string",
          "name": "_location",
          "type": "string"
        },
        {
          "internalType": "uint256",
          "name": "_area",
          "type": "uint256"
        },
        {
          "internalType": "string",
          "name": "_nin",
          "type": "string"
        }
      ],
      "name": "registerLand",
      "outputs": [],
      "stateMutability": "nonpayable",
      "type": "function"
    },
    {
      "inputs": [
        {
          "internalType": "string",
          "name": "username",
          "type": "string"
        },
        {
          "internalType": "bytes32",
          "name": "passwordHash",
          "type": "bytes32"
        }
      ],
      "name": "registerUser",
      "outputs": [],
      "stateMutability": "nonpayable",
      "type": "function"
    },
    {
      "inputs": [
        {
          "internalType": "uint256",
          "name": "_landId",
          "type": "uint256"
        },
        {
          "internalType": "address",
          "name": "_newOwner",
          "type": "address"
        }
      ],
      "name": "transferOwnership",
      "outputs": [],
      "stateMutability": "nonpayable",
      "type": "function"
    },
    {
      "inputs": [
        {
          "internalType": "address",
          "name": "",
          "type": "address"
        }
      ],
      "name": "users",
      "outputs": [
        {
          "internalType": "string",
          "name": "username",
          "type": "string"
        },
        {
          "internalType": "bytes32",
          "name": "passwordHash",
          "type": "bytes32"
        },
        {
          "internalType": "address",
          "name": "userAddress",
          "type": "address"
        }
      ],
      "stateMutability": "view",
      "type": "function"
    }
  ],
  "bytecode": "0x608060405234801561001057600080fd5b506123a9806100206000396000f3fe608060405234801561001057600080fd5b50600436106100935760003560e01c8063b7b6e54311610066578063b7b6e54314610134578063d7bce65814610152578063dfb3ed4114610170578063e261f1e51461018c578063f02dd53f146101c157610093565b806329507f731461009857806368ae5563146100b45780636f77926b146100d0578063a87430ba14610102575b600080fd5b6100b260048036038101906100ad91906113c8565b6101f5565b005b6100ce60048036038101906100c99190611584565b61042b565b005b6100ea60048036038101906100e591906115e0565b61062c565b6040516100f9939291906116aa565b60405180910390f35b61011c600480360381019061011791906115e0565b6107d6565b60405161012b939291906116aa565b60405180910390f35b61013c6108a8565b60405161014991906118a9565b60405180910390f35b61015a610b96565b60405161016791906118da565b60405180910390f35b61018a600480360381019061018591906118f5565b610b9c565b005b6101a660048036038101906101a191906119b0565b610e18565b6040516101b8969594939291906119dd565b60405180910390f35b6101db60048036038101906101d691906119b0565b61100c565b6040516101ec959493929190611a53565b60405180910390f35b60008211801561020757506000548211155b610246576040517f08c379a000000000000000000000000000000000000000000000000000000000815260040161023d90611b07565b60405180910390fd5b600073ffffffffffffffffffffffffffffffffffffffff168173ffffffffffffffffffffffffffffffffffffffff16036102b5576040517f08c379a00000000000000000000000000000000000000000000000000000000081526004016102ac90611b99565b60405180910390fd5b60006002600084815260200190815260200160002090503373ffffffffffffffffffffffffffffffffffffffff168160050160009054906101000a900473ffffffffffffffffffffffffffffffffffffffff1673ffffffffffffffffffffffffffffffffffffffff161461035e576040517f08c379a000000000000000000000000000000000000000000000000000000000815260040161035590611c2b565b60405180910390fd5b60008160050160009054906101000a900473ffffffffffffffffffffffffffffffffffffffff169050828260050160006101000a81548173ffffffffffffffffffffffffffffffffffffffff021916908373ffffffffffffffffffffffffffffffffffffffff1602179055508273ffffffffffffffffffffffffffffffffffffffff168173ffffffffffffffffffffffffffffffffffffffff16857f16b85f49bf01212961345d3016c9a531894accf62eb7680f2045d79185cc0ec060405160405180910390a450505050565b6000600160003373ffffffffffffffffffffffffffffffffffffffff1673ffffffffffffffffffffffffffffffffffffffff168152602001908152602001600020600001805461047a90611c7a565b9050146104bc576040517f08c379a00000000000000000000000000000000000000000000000000000000081526004016104b390611cf7565b60405180910390fd5b6000825111610500576040517f08c379a00000000000000000000000000000000000000000000000000000000081526004016104f790611d63565b60405180910390fd5b60405180606001604052808381526020018281526020013373ffffffffffffffffffffffffffffffffffffffff16815250600160003373ffffffffffffffffffffffffffffffffffffffff1673ffffffffffffffffffffffffffffffffffffffff16815260200190815260200160002060008201518160000190816105859190611f2f565b506020820151816001015560408201518160020160006101000a81548173ffffffffffffffffffffffffffffffffffffffff021916908373ffffffffffffffffffffffffffffffffffffffff1602179055509050503373ffffffffffffffffffffffffffffffffffffffff167f48cac28ad4dc618e15f4c2dd5e97751182f166de97b25618318b2112aa951a2f836040516106209190612001565b60405180910390a25050565b60606000806000600160008673ffffffffffffffffffffffffffffffffffffffff1673ffffffffffffffffffffffffffffffffffffffff16815260200190815260200160002060405180606001604052908160008201805461068d90611c7a565b80601f01602080910402602001604051908101604052809291908181526020018280546106b990611c7a565b80156107065780601f106106db57610100808354040283529160200191610706565b820191906000526020600020905b8154815290600101906020018083116106e957829003601f168201915b50505050508152602001600182015481526020016002820160009054906101000a900473ffffffffffffffffffffffffffffffffffffffff1673ffffffffffffffffffffffffffffffffffffffff1673ffffffffffffffffffffffffffffffffffffffff168152505090506000816000015151116107b9576040517f08c379a00000000000000000000000000000000000000000000000000000000081526004016107b09061206f565b60405180910390fd5b806000015181602001518260400151935093509350509193909250565b60016020528060005260406000206000915090508060000180546107f990611c7a565b80601f016020809104026020016040519081016040528092919081815260200182805461082590611c7a565b80156108725780601f1061084757610100808354040283529160200191610872565b820191906000526020600020905b81548152906001019060200180831161085557829003601f168201915b5050505050908060010154908060020160009054906101000a900473ffffffffffffffffffffffffffffffffffffffff16905083565b60606000805467ffffffffffffffff8111156108c7576108c6611423565b5b60405190808252806020026020018201604052801561090057816020015b6108ed6112d4565b8152602001906001900390816108e55790505b5090506000600190505b6000548111610b8e57600260008281526020019081526020016000206040518060c00160405290816000820154815260200160018201805461094b90611c7a565b80601f016020809104026020016040519081016040528092919081815260200182805461097790611c7a565b80156109c45780601f10610999576101008083540402835291602001916109c4565b820191906000526020600020905b8154815290600101906020018083116109a757829003601f168201915b505050505081526020016002820180546109dd90611c7a565b80601f0160208091040260200160405190810160405280929190818152602001828054610a0990611c7a565b8015610a565780601f10610a2b57610100808354040283529160200191610a56565b820191906000526020600020905b815481529060010190602001808311610a3957829003601f168201915b5050505050815260200160038201548152602001600482018054610a7990611c7a565b80601f0160208091040260200160405190810160405280929190818152602001828054610aa590611c7a565b8015610af25780601f10610ac757610100808354040283529160200191610af2565b820191906000526020600020905b815481529060010190602001808311610ad557829003601f168201915b505050505081526020016005820160009054906101000a900473ffffffffffffffffffffffffffffffffffffffff1673ffffffffffffffffffffffffffffffffffffffff1673ffffffffffffffffffffffffffffffffffffffff168152505082600183610b5f91906120be565b81518110610b7057610b6f6120f2565b5b60200260200101819052508080610b8690612121565b91505061090a565b508091505090565b60005481565b6000845111610be0576040517f08c379a0000000000000000000000000000000000000000000000000000000008152600401610bd7906121b5565b60405180910390fd5b6000835111610c24576040517f08c379a0000000000000000000000000000000000000000000000000000000008152600401610c1b90612221565b60405180910390fd5b60008211610c67576040517f08c379a0000000000000000000000000000000000000000000000000000000008152600401610c5e9061228d565b60405180910390fd5b6000815111610cab576040517f08c379a0000000000000000000000000000000000000000000000000000000008152600401610ca2906122f9565b60405180910390fd5b600080815480929190610cbd90612121565b91905055506040518060c0016040528060005481526020018581526020018481526020018381526020018281526020013373ffffffffffffffffffffffffffffffffffffffff168152506002600080548152602001908152602001600020600082015181600001556020820151816001019081610d3a9190611f2f565b506040820151816002019081610d509190611f2f565b50606082015181600301556080820151816004019081610d709190611f2f565b5060a08201518160050160006101000a81548173ffffffffffffffffffffffffffffffffffffffff021916908373ffffffffffffffffffffffffffffffffffffffff1602179055509050503373ffffffffffffffffffffffffffffffffffffffff166000547f9708a806da655a62331a6cfcc18e06d29df83658f9954328ed8a196a6013095886868686604051610e0a9493929190612319565b60405180910390a350505050565b6002602052806000526040600020600091509050806000015490806001018054610e4190611c7a565b80601f0160208091040260200160405190810160405280929190818152602001828054610e6d90611c7a565b8015610eba5780601f10610e8f57610100808354040283529160200191610eba565b820191906000526020600020905b815481529060010190602001808311610e9d57829003601f168201915b505050505090806002018054610ecf90611c7a565b80601f0160208091040260200160405190810160405280929190818152602001828054610efb90611c7a565b8015610f485780601f10610f1d57610100808354040283529160200191610f48565b820191906000526020600020905b815481529060010190602001808311610f2b57829003601f168201915b505050505090806003015490806004018054610f6390611c7a565b80601f0160208091040260200160405190810160405280929190818152602001828054610f8f90611c7a565b8015610fdc5780601f10610fb157610100808354040283529160200191610fdc565b820191906000526020600020905b815481529060010190602001808311610fbf57829003601f168201915b5050505050908060050160009054906101000a900473ffffffffffffffffffffffffffffffffffffffff16905086565b606080600060606000808611801561102657506000548611155b611065576040517f08c379a000000000000000000000000000000000000000000000000000000000815260040161105c90611b07565b60405180910390fd5b6000600260008881526020019081526020016000206040518060c00160405290816000820154815260200160018201805461109f90611c7a565b80601f01602080910402602001604051908101604052809291908181526020018280546110cb90611c7a565b80156111185780601f106110ed57610100808354040283529160200191611118565b820191906000526020600020905b8154815290600101906020018083116110fb57829003601f168201915b5050505050815260200160028201805461113190611c7a565b80601f016020809104026020016040519081016040528092919081815260200182805461115d90611c7a565b80156111aa5780601f1061117f576101008083540402835291602001916111aa565b820191906000526020600020905b81548152906001019060200180831161118d57829003601f168201915b50505050508152602001600382015481526020016004820180546111cd90611c7a565b80601f01602080910402602001604051908101604052809291908181526020018280546111f990611c7a565b80156112465780601f1061121b57610100808354040283529160200191611246565b820191906000526020600020905b81548152906001019060200180831161122957829003601f168201915b505050505081526020016005820160009054906101000a900473ffffffffffffffffffffffffffffffffffffffff1673ffffffffffffffffffffffffffffffffffffffff1673ffffffffffffffffffffffffffffffffffffffff1681525050905080602001518160400151826060015183608001518460a00151955095509550955095505091939590929450565b6040518060c001604052806000815260200160608152602001606081526020016000815260200160608152602001600073ffffffffffffffffffffffffffffffffffffffff1681525090565b6000604051905090565b600080fd5b600080fd5b6000819050919050565b61134781611334565b811461135257600080fd5b50565b6000813590506113648161133e565b92915050565b600073ffffffffffffffffffffffffffffffffffffffff82169050919050565b60006113958261136a565b9050919050565b6113a58161138a565b81146113b057600080fd5b50565b6000813590506113c28161139c565b92915050565b600080604083850312156113df576113de61132a565b5b60006113ed85828601611355565b92505060206113fe858286016113b3565b9150509250929050565b600080fd5b600080fd5b6000601f19601f8301169050919050565b7f4e487b7100000000000000000000000000000000000000000000000000000000600052604160045260246000fd5b61145b82611412565b810181811067ffffffffffffffff8211171561147a57611479611423565b5b80604052505050565b600061148d611320565b90506114998282611452565b919050565b600067ffffffffffffffff8211156114b9576114b8611423565b5b6114c282611412565b9050602081019050919050565b82818337600083830152505050565b60006114f16114ec8461149e565b611483565b90508281526020810184848401111561150d5761150c61140d565b5b6115188482856114cf565b509392505050565b600082601f83011261153557611534611408565b5b81356115458482602086016114de565b91505092915050565b6000819050919050565b6115618161154e565b811461156c57600080fd5b50565b60008135905061157e81611558565b92915050565b6000806040838503121561159b5761159a61132a565b5b600083013567ffffffffffffffff8111156115b9576115b861132f565b5b6115c585828601611520565b92505060206115d68582860161156f565b9150509250929050565b6000602082840312156115f6576115f561132a565b5b6000611604848285016113b3565b91505092915050565b600081519050919050565b600082825260208201905092915050565b60005b8381101561164757808201518184015260208101905061162c565b60008484015250505050565b600061165e8261160d565b6116688185611618565b9350611678818560208601611629565b61168181611412565b840191505092915050565b6116958161154e565b82525050565b6116a48161138a565b82525050565b600060608201905081810360008301526116c48186611653565b90506116d3602083018561168c565b6116e0604083018461169b565b949350505050565b600081519050919050565b600082825260208201905092915050565b6000819050602082019050919050565b61171d81611334565b82525050565b600082825260208201905092915050565b600061173f8261160d565b6117498185611723565b9350611759818560208601611629565b61176281611412565b840191505092915050565b6117768161138a565b82525050565b600060c0830160008301516117946000860182611714565b50602083015184820360208601526117ac8282611734565b915050604083015184820360408601526117c68282611734565b91505060608301516117db6060860182611714565b50608083015184820360808601526117f38282611734565b91505060a083015161180860a086018261176d565b508091505092915050565b600061181f838361177c565b905092915050565b6000602082019050919050565b600061183f826116e8565b61184981856116f3565b93508360208202850161185b85611704565b8060005b8581101561189757848403895281516118788582611813565b945061188383611827565b925060208a0199505060018101905061185f565b50829750879550505050505092915050565b600060208201905081810360008301526118c38184611834565b905092915050565b6118d481611334565b82525050565b60006020820190506118ef60008301846118cb565b92915050565b6000806000806080858703121561190f5761190e61132a565b5b600085013567ffffffffffffffff81111561192d5761192c61132f565b5b61193987828801611520565b945050602085013567ffffffffffffffff81111561195a5761195961132f565b5b61196687828801611520565b935050604061197787828801611355565b925050606085013567ffffffffffffffff8111156119985761199761132f565b5b6119a487828801611520565b91505092959194509250565b6000602082840312156119c6576119c561132a565b5b60006119d484828501611355565b91505092915050565b600060c0820190506119f260008301896118cb565b8181036020830152611a048188611653565b90508181036040830152611a188187611653565b9050611a2760608301866118cb565b8181036080830152611a398185611653565b9050611a4860a083018461169b565b979650505050505050565b600060a0820190508181036000830152611a6d8188611653565b90508181036020830152611a818187611653565b9050611a9060408301866118cb565b8181036060830152611aa28185611653565b9050611ab1608083018461169b565b9695505050505050565b7f4c616e64206e6f7420666f756e64000000000000000000000000000000000000600082015250565b6000611af1600e83611618565b9150611afc82611abb565b602082019050919050565b60006020820190508181036000830152611b2081611ae4565b9050919050565b7f4e6577206f776e65722063616e6e6f7420626520746865207a65726f2061646460008201527f7265737300000000000000000000000000000000000000000000000000000000602082015250565b6000611b83602483611618565b9150611b8e82611b27565b604082019050919050565b60006020820190508181036000830152611bb281611b76565b9050919050565b7f596f7520617265206e6f7420746865206f776e6572206f662074686973206c6160008201527f6e64000000000000000000000000000000000000000000000000000000000000602082015250565b6000611c15602283611618565b9150611c2082611bb9565b604082019050919050565b60006020820190508181036000830152611c4481611c08565b9050919050565b7f4e487b7100000000000000000000000000000000000000000000000000000000600052602260045260246000fd5b60006002820490506001821680611c9257607f821691505b602082108103611ca557611ca4611c4b565b5b50919050565b7f5573657220616c72656164792065786973747300000000000000000000000000600082015250565b6000611ce1601383611618565b9150611cec82611cab565b602082019050919050565b60006020820190508181036000830152611d1081611cd4565b9050919050565b7f557365726e616d652063616e6e6f7420626520656d7074790000000000000000600082015250565b6000611d4d601883611618565b9150611d5882611d17565b602082019050919050565b60006020820190508181036000830152611d7c81611d40565b9050919050565b60008190508160005260206000209050919050565b60006020601f8301049050919050565b600082821b905092915050565b600060088302611de57fffffffffffffffffffffffffffffffffffffffffffffffffffffffffffffffff82611da8565b611def8683611da8565b95508019841693508086168417925050509392505050565b6000819050919050565b6000611e2c611e27611e2284611334565b611e07565b611334565b9050919050565b6000819050919050565b611e4683611e11565b611e5a611e5282611e33565b848454611db5565b825550505050565b600090565b611e6f611e62565b611e7a818484611e3d565b505050565b5b81811015611e9e57611e93600082611e67565b600181019050611e80565b5050565b601f821115611ee357611eb481611d83565b611ebd84611d98565b81016020851015611ecc578190505b611ee0611ed885611d98565b830182611e7f565b50505b505050565b600082821c905092915050565b6000611f0660001984600802611ee8565b1980831691505092915050565b6000611f1f8383611ef5565b9150826002028217905092915050565b611f388261160d565b67ffffffffffffffff811115611f5157611f50611423565b5b611f5b8254611c7a565b611f66828285611ea2565b600060209050601f831160018114611f995760008415611f87578287015190505b611f918582611f13565b865550611ff9565b601f198416611fa786611d83565b60005b82811015611fcf57848901518255600182019150602085019450602081019050611faa565b86831015611fec5784890151611fe8601f891682611ef5565b8355505b6001600288020188555050505b505050505050565b6000602082019050818103600083015261201b8184611653565b905092915050565b7f55736572206e6f7420666f756e64000000000000000000000000000000000000600082015250565b6000612059600e83611618565b915061206482612023565b602082019050919050565b600060208201905081810360008301526120888161204c565b9050919050565b7f4e487b7100000000000000000000000000000000000000000000000000000000600052601160045260246000fd5b60006120c982611334565b91506120d483611334565b92508282039050818111156120ec576120eb61208f565b5b92915050565b7f4e487b7100000000000000000000000000000000000000000000000000000000600052603260045260246000fd5b600061212c82611334565b91507fffffffffffffffffffffffffffffffffffffffffffffffffffffffffffffffff820361215e5761215d61208f565b5b600182019050919050565b7f4f776e6572206e616d652063616e6e6f7420626520656d707479000000000000600082015250565b600061219f601a83611618565b91506121aa82612169565b602082019050919050565b600060208201905081810360008301526121ce81612192565b9050919050565b7f4c6f636174696f6e2063616e6e6f7420626520656d7074790000000000000000600082015250565b600061220b601883611618565b9150612216826121d5565b602082019050919050565b6000602082019050818103600083015261223a816121fe565b9050919050565b7f41726561206d7573742062652067726561746572207468616e207a65726f0000600082015250565b6000612277601e83611618565b915061228282612241565b602082019050919050565b600060208201905081810360008301526122a68161226a565b9050919050565b7f4e494e2063616e6e6f7420626520656d70747900000000000000000000000000600082015250565b60006122e3601383611618565b91506122ee826122ad565b602082019050919050565b60006020820190508181036000830152612312816122d6565b9050919050565b600060808201905081810360008301526123338187611653565b905081810360208301526123478186611653565b905061235660408301856118cb565b81810360608301526123688184611653565b90509594505050505056fea2646970667358221220936c9164d5253be045101d74f1ecbe84b6e3031e6d83572f7ed90911dce2009864736f6c63430008140033",
  "linkReferences": {},
  "deployedLinkReferences": {}
}