{
  "_format": "hh-sol-artifact-1",
  "contractName": "LandRegistry",
  "sourceName": "contracts/LandRegistry.sol",
  "abi": [
    {
      "anonymous": false,
      "inputs": [
        {
          "indexed": false,
          "internalType": "uint256",
          "name": "id",
          "type": "uint256"
        },
        {
          "indexed": false,
          "internalType": "string",
          "name": "ownerName",
          "type": "string"
        },
        {
          "indexed": false,
          "internalType": "string",
          "name": "location",
          "type": "string"
        },
        {
          "indexed": false,
          "internalType": "uint256",
          "name": "area",
          "type": "uint256"
        }
      ],
      "name": "LandRegistered",
      "type": "event"
    },
    {
      "inputs": [
        {
          "internalType": "uint256",
          "name": "_id",
          "type": "uint256"
        }
      ],
      "name": "getLandDetails",
      "outputs": [
        {
          "components": [
            {
              "internalType": "uint256",
              "name": "id",
              "type": "uint256"
            },
            {
              "internalType": "string",
              "name": "ownerName",
              "type": "string"
            },
            {
              "internalType": "string",
              "name": "location",
              "type": "string"
            },
            {
              "internalType": "uint256",
              "name": "area",
              "type": "uint256"
            },
            {
              "internalType": "bool",
              "name": "isRegistered",
              "type": "bool"
            }
          ],
          "internalType": "struct LandRegistry.Land",
          "name": "",
          "type": "tuple"
        }
      ],
      "stateMutability": "view",
      "type": "function"
    },
    {
      "inputs": [],
      "name": "landCount",
      "outputs": [
        {
          "internalType": "uint256",
          "name": "",
          "type": "uint256"
        }
      ],
      "stateMutability": "view",
      "type": "function"
    },
    {
      "inputs": [
        {
          "internalType": "uint256",
          "name": "",
          "type": "uint256"
        }
      ],
      "name": "lands",
      "outputs": [
        {
          "internalType": "uint256",
          "name": "id",
          "type": "uint256"
        },
        {
          "internalType": "string",
          "name": "ownerName",
          "type": "string"
        },
        {
          "internalType": "string",
          "name": "location",
          "type": "string"
        },
        {
          "internalType": "uint256",
          "name": "area",
          "type": "uint256"
        },
        {
          "internalType": "bool",
          "name": "isRegistered",
          "type": "bool"
        }
      ],
      "stateMutability": "view",
      "type": "function"
    },
    {
      "inputs": [
        {
          "internalType": "uint256",
          "name": "_id",
          "type": "uint256"
        },
        {
          "internalType": "string",
          "name": "_ownerName",
          "type": "string"
        },
        {
          "internalType": "string",
          "name": "_location",
          "type": "string"
        },
        {
          "internalType": "uint256",
          "name": "_area",
          "type": "uint256"
        }
      ],
      "name": "registerLand",
      "outputs": [],
      "stateMutability": "nonpayable",
      "type": "function"
    }
  ],
  "bytecode": "0x608060405234801561001057600080fd5b50610ef5806100206000396000f3fe608060405234801561001057600080fd5b506004361061004c5760003560e01c8063cde6d0f814610051578063d7bce6581461006d578063e261f1e51461008b578063fe0cb7dc146100bf575b600080fd5b61006b60048036038101906100669190610747565b6100ef565b005b61007561024c565b60405161008291906107f5565b60405180910390f35b6100a560048036038101906100a09190610810565b610252565b6040516100b69594939291906108d7565b60405180910390f35b6100d960048036038101906100d49190610810565b6103a5565b6040516100e69190610a1d565b60405180910390f35b60008085815260200190815260200160002060040160009054906101000a900460ff1615610152576040517f08c379a000000000000000000000000000000000000000000000000000000000815260040161014990610a8b565b60405180910390fd5b6040518060a00160405280858152602001848152602001838152602001828152602001600115158152506000808681526020019081526020016000206000820151816000015560208201518160010190816101ad9190610cb7565b5060408201518160020190816101c39190610cb7565b506060820151816003015560808201518160040160006101000a81548160ff0219169083151502179055509050506001600081548092919061020490610db8565b91905055507f892b379b37cd07fe40cab6859a79d8898e1e854252b58ae38596fa21d30b65be8484848460405161023e9493929190610e00565b60405180910390a150505050565b60015481565b600060205280600052604060002060009150905080600001549080600101805461027b90610ada565b80601f01602080910402602001604051908101604052809291908181526020018280546102a790610ada565b80156102f45780601f106102c9576101008083540402835291602001916102f4565b820191906000526020600020905b8154815290600101906020018083116102d757829003601f168201915b50505050509080600201805461030990610ada565b80601f016020809104026020016040519081016040528092919081815260200182805461033590610ada565b80156103825780601f1061035757610100808354040283529160200191610382565b820191906000526020600020905b81548152906001019060200180831161036557829003601f168201915b5050505050908060030154908060040160009054906101000a900460ff16905085565b6103ad610586565b60008083815260200190815260200160002060040160009054906101000a900460ff1661040f576040517f08c379a000000000000000000000000000000000000000000000000000000000815260040161040690610e9f565b60405180910390fd5b6000808381526020019081526020016000206040518060a00160405290816000820154815260200160018201805461044690610ada565b80601f016020809104026020016040519081016040528092919081815260200182805461047290610ada565b80156104bf5780601f10610494576101008083540402835291602001916104bf565b820191906000526020600020905b8154815290600101906020018083116104a257829003601f168201915b505050505081526020016002820180546104d890610ada565b80601f016020809104026020016040519081016040528092919081815260200182805461050490610ada565b80156105515780601f1061052657610100808354040283529160200191610551565b820191906000526020600020905b81548152906001019060200180831161053457829003601f168201915b50505050508152602001600382015481526020016004820160009054906101000a900460ff1615151515815250509050919050565b6040518060a00160405280600081526020016060815260200160608152602001600081526020016000151581525090565b6000604051905090565b600080fd5b600080fd5b6000819050919050565b6105de816105cb565b81146105e957600080fd5b50565b6000813590506105fb816105d5565b92915050565b600080fd5b600080fd5b6000601f19601f8301169050919050565b7f4e487b7100000000000000000000000000000000000000000000000000000000600052604160045260246000fd5b6106548261060b565b810181811067ffffffffffffffff821117156106735761067261061c565b5b80604052505050565b60006106866105b7565b9050610692828261064b565b919050565b600067ffffffffffffffff8211156106b2576106b161061c565b5b6106bb8261060b565b9050602081019050919050565b82818337600083830152505050565b60006106ea6106e584610697565b61067c565b90508281526020810184848401111561070657610705610606565b5b6107118482856106c8565b509392505050565b600082601f83011261072e5761072d610601565b5b813561073e8482602086016106d7565b91505092915050565b60008060008060808587031215610761576107606105c1565b5b600061076f878288016105ec565b945050602085013567ffffffffffffffff8111156107905761078f6105c6565b5b61079c87828801610719565b935050604085013567ffffffffffffffff8111156107bd576107bc6105c6565b5b6107c987828801610719565b92505060606107da878288016105ec565b91505092959194509250565b6107ef816105cb565b82525050565b600060208201905061080a60008301846107e6565b92915050565b600060208284031215610826576108256105c1565b5b6000610834848285016105ec565b91505092915050565b600081519050919050565b600082825260208201905092915050565b60005b8381101561087757808201518184015260208101905061085c565b60008484015250505050565b600061088e8261083d565b6108988185610848565b93506108a8818560208601610859565b6108b18161060b565b840191505092915050565b60008115159050919050565b6108d1816108bc565b82525050565b600060a0820190506108ec60008301886107e6565b81810360208301526108fe8187610883565b905081810360408301526109128186610883565b905061092160608301856107e6565b61092e60808301846108c8565b9695505050505050565b610941816105cb565b82525050565b600082825260208201905092915050565b60006109638261083d565b61096d8185610947565b935061097d818560208601610859565b6109868161060b565b840191505092915050565b61099a816108bc565b82525050565b600060a0830160008301516109b86000860182610938565b50602083015184820360208601526109d08282610958565b915050604083015184820360408601526109ea8282610958565b91505060608301516109ff6060860182610938565b506080830151610a126080860182610991565b508091505092915050565b60006020820190508181036000830152610a3781846109a0565b905092915050565b7f4c616e6420697320616c726561647920726567697374657265642e0000000000600082015250565b6000610a75601b83610848565b9150610a8082610a3f565b602082019050919050565b60006020820190508181036000830152610aa481610a68565b9050919050565b7f4e487b7100000000000000000000000000000000000000000000000000000000600052602260045260246000fd5b60006002820490506001821680610af257607f821691505b602082108103610b0557610b04610aab565b5b50919050565b60008190508160005260206000209050919050565b60006020601f8301049050919050565b600082821b905092915050565b600060088302610b6d7fffffffffffffffffffffffffffffffffffffffffffffffffffffffffffffffff82610b30565b610b778683610b30565b95508019841693508086168417925050509392505050565b6000819050919050565b6000610bb4610baf610baa846105cb565b610b8f565b6105cb565b9050919050565b6000819050919050565b610bce83610b99565b610be2610bda82610bbb565b848454610b3d565b825550505050565b600090565b610bf7610bea565b610c02818484610bc5565b505050565b5b81811015610c2657610c1b600082610bef565b600181019050610c08565b5050565b601f821115610c6b57610c3c81610b0b565b610c4584610b20565b81016020851015610c54578190505b610c68610c6085610b20565b830182610c07565b50505b505050565b600082821c905092915050565b6000610c8e60001984600802610c70565b1980831691505092915050565b6000610ca78383610c7d565b9150826002028217905092915050565b610cc08261083d565b67ffffffffffffffff811115610cd957610cd861061c565b5b610ce38254610ada565b610cee828285610c2a565b600060209050601f831160018114610d215760008415610d0f578287015190505b610d198582610c9b565b865550610d81565b601f198416610d2f86610b0b565b60005b82811015610d5757848901518255600182019150602085019450602081019050610d32565b86831015610d745784890151610d70601f891682610c7d565b8355505b6001600288020188555050505b505050505050565b7f4e487b7100000000000000000000000000000000000000000000000000000000600052601160045260246000fd5b6000610dc3826105cb565b91507fffffffffffffffffffffffffffffffffffffffffffffffffffffffffffffffff8203610df557610df4610d89565b5b600182019050919050565b6000608082019050610e1560008301876107e6565b8181036020830152610e278186610883565b90508181036040830152610e3b8185610883565b9050610e4a60608301846107e6565b95945050505050565b7f4c616e64206973206e6f7420726567697374657265642e000000000000000000600082015250565b6000610e89601783610848565b9150610e9482610e53565b602082019050919050565b60006020820190508181036000830152610eb881610e7c565b905091905056fea2646970667358221220cd2c4469a3d452db60739a4776fc4a2af247edb08de06c417433452411f4196064736f6c63430008140033",
  "linkReferences": {},
  "deployedLinkReferences": {}
}